:020000040800F2
:10000000600600206D0100087501000877010008F6
:10001000790100087B0100087D0100080000000054
:100020000000000000000000000000007F01000848
:10003000810100080000000083010008850100081C
:100040008701000887010008870100088701000870
:100050008701000887010008870100088701000860
:100060008701000887010008870100088701000850
:100070008701000887010008870100088701000840
:100080008701000887010008870100088701000830
:100090008701000887010008870100088701000820
:1000A0008701000887010008870100088701000810
:1000B0008701000887010008870100088701000800
:1000C00087010008870100088701000887010008F0
:1000D00087010008870100088701000887010008E0
:1000E00087010008870100088701000800F002F876
:1000F00000F02CF80AA090E8000C82448344AAF196
:100100000107DA4501D100F021F8AFF2090EBAE893
:100110000F0013F0010F18BFFB1A43F0010318473B
:10012000E4090000F4090000002300240025002653
:10013000103A28BF78C1FBD8520728BF30C148BF4A
:100140000B6070471FB51FBD10B510BD00F031F832
:100150001146FFF7F7FF00F091FA00F04FF803B4F3
:10016000FFF7F2FF03BC00F057F800000948804792
:1001700009480047FEE7FEE7FEE7FEE7FEE7FEE789
:10018000FEE7FEE7FEE7FEE704480549054A064BA1
:100190007047000029030008ED00000860000020FF
:1001A0006006002060020020600200207047704757
:1001B0007047754600F02CF8AE4605006946534678
:1001C00020F00700854618B020B5FFF7DDFFBDE839
:1001D00020404FF000064FF000074FF000084FF0AE
:1001E000000BAC46ACE8C009ACE8C009ACE8C009FB
:1001F000ACE8C00921F007018D46704710B50446F0
:10020000AFF300802046BDE81040FFF7A8BF000014
:10021000004870470000002001491820ABBEFEE7EF
:1002200026000200704700004EF2100041F6401117
:10023000CEF20000C0F2010141600021816000BFE8
:100240000168C903FCD5704710B5002808BF10BD70
:10025000044600BFFFF7E8FF013CFBD110BD0000E2
:1002600080B500F001F880BD82B041F204000021A9
:10027000C4F202000191009150F8041C41F4803155
:1002800040F8041C50F8041C01F40031009101995D
:1002900001310191009919B90199B1F5A06FF1D11E
:1002A00050F8041C890354BF0021012100910099DA
:1002B000012936D142F20001C4F202010A6842F07B
:1002C00010020A600A6822F007020A600A6842F017
:1002D00002020A600168016001680160016841F47E
:1002E00080610160016821F47C110160016841F4C2
:1002F000E811016050F8041C41F0807140F8041CC2
:1003000050F8041C8901FBD5016821F0030101604C
:10031000016841F002010160016801F00C01082947
:10032000FAD102B07047000080B541F20000C4F27B
:1003300002000168002241F0010101604168CFF62E
:10034000FF021140416001684FF6FF72CFF6F6627E
:1003500011400160016821F480210160416821F4AD
:10036000FE0141604FF41F018160FFF779FF4EF6F7
:100370000850CEF200004FF00061016080BD000027
:1003800048F21F52C5F2EB1281FB022304465811BA
:1003900000EBD375642005FB101600200FF25808FF
:1003A0003C2808BF01363C2E08BF0135B6F13C01A0
:1003B00008BF0E46B5F1180108BF0D46471C3C2882
:1003C00020464FF004014FF0320208BF012700F031
:1003D0005DFA2046294600F091F92046414600F09A
:1003E0006BFA2046314600F089F940F2E330FFF71E
:1003F0002BFF3846D4E700BF3A00000081B0022846
:1004000016D001282DD145F21440C4F2000011434A
:1004100020F8041C01888907FCD505E001880091BB
:10042000818800910188E1B101888907F6D418E03C
:1004300045F61400114345F21442C4F20000C4F220
:100440000002A2F8FC1300BF01888907FCD505E073
:100450000188009181880091018811B10188890784
:10046000F6D401B070470000012815D0022818BF4B
:10047000704745F61400C4F2000000BF028812065F
:10048000FCD545F21442C4F20002A2F8FC1300BFEE
:1004900001880906FCD50CE045F21440C4F20000C6
:1004A00002881206FCD520F8041C00BF018809064A
:1004B000FCD57047B0B50C4641F21C01C4F20201F4
:1004C00051F8042C45F2004542F0010241F8042C99
:1004D0000A680128C4F2000520D142F40010086027
:1004E000022006210322032300F090F802200721B6
:1004F0000322032300F08AF8288840F40040288073
:1005000028886FF3DF3028800820A8800920AC837A
:100510002884288840F001002880B0BD42F4800083
:10052000086002200A210322032300F06FF8022052
:100530000B210322032300F069F8B5F80004082119
:1005400040F40040A5F80004B5F800046FF3DF3074
:10055000A5F8000445F60400C4F20000018009215A
:1005600004838183B5F8000440F00100A5F800047D
:10057000B0BD000002280FD0012818BF704745F217
:100580000040C4F20000018841F48071018000BF86
:10059000818AC907FCD010E045F20040C4F2000097
:1005A000B0F8001441F48071A0F8001445F614006E
:1005B000C4F200000188C907FCD0704781B002284E
:1005C0000FD001281FD145F20040C4F20000818AFB
:1005D0000091018B0091018841F40071018001B00C
:1005E000704745F61400C4F200000188009180882D
:1005F000009045F20040C4F20000B0F8001441F44D
:100600000071A0F8001401B070470000B0B54FF0C1
:10061000000C072940F6000E88BF4FF0010C01289E
:10062000C4F2010E07D0032807D0022811D10EF51D
:10063000806E082004E0042002E00EF5006E102019
:1006400041F21804C4F202042568284320600EEB2E
:100650008C00072988BF083989B289000F250468F2
:100660008D4024EA050505608A40023103FA01F154
:100670000368114319430160B0BD000000F044F964
:10068000022000F0A7F84FF4FA60FFF7DDFD02202A
:1006900000F01AF802204FF40871FFF771FE000015
:1006A00070B5044601EB810040F62211C0F600014E
:1006B0000844451E052600BF15F8011F204600F01E
:1006C00073F8013EF8D170BD70B5002100220446D8
:1006D000002500F0DBF800BF802600BF2046002187
:1006E00000F062F8013EF9D10135082DF4D1204621
:1006F0000021002200F0CAF870BD000070B50C4661
:1007000046F26761C6F2666184FB01239A1002EB30
:10071000D37686FB01120546901000EBD27000EBF9
:100720008000A6EB400000F110012846FFF7B8FF5B
:1007300006EB8600A4EB400000F110012846FFF70D
:10074000AFFF70BDB0B50C460546FFF713FF284656
:1007500078210022FFF752FE28460021FFF784FE91
:1007600028462146FFF780FE2846FFF727FFB0BD49
:1007700070B50D460446FFF7FDFE204678210022A5
:100780000026FFF73BFE20460021FFF76DFE00BF6D
:10079000A95D2046FFF768FE0136012EF8D02046FD
:1007A000FFF70CFF70BD0000B0B50C460546FFF723
:1007B000E1FE284678210022FFF720FE284640214E
:1007C000FFF752FE28462146FFF74EFE2846FFF768
:1007D000F5FEB0BD10B584B02D210446FFF76AFECA
:1007E00043F6A870ADF80E000DF10E012046FFF79C
:1007F000BFFFD320ADF80C0003A92046FFF7B8FFD8
:1008000020464021FFF79EFF2046A121FFF79AFFD7
:100810002046C821FFF796FF41F2DA20ADF80A0022
:100820000DF10A012046FFF7A3FF47F68170ADF8EE
:10083000080002A92046FFF79BFF2046A421FFF7EE
:1008400081FF2046A621FFF77DFF48F2D500ADF8D5
:1008500006000DF106012046FFF78AFF41F28D40A8
:10086000ADF8040001A92046FFF782FF2046AF2122
:10087000FFF768FF4FF48150ADF802000DF102015F
:100880002046FFF775FF04B010BD000070B50D469F
:1008900002F00F0114460646FFF754FF200900F14D
:1008A00010013046FFF74EFFA5F15000C1B23046AF
:1008B000FFF748FF70BD00002DE9F04381B0884686
:1008C0000978F1B140F6221705464FF00009C0F64D
:1008D00000074446002600BF207800EB8000384423
:1008E000304410F8A01C2846FFF75EFF0136052EA5
:1008F000F2D109F1010918F8090008EB09040028F0
:10090000E8D101B0BDE8F0834EF21000CEF2000055
:1009100000216FF07F42016042608160052101602B
:100920007047000000000000005F000000070007A3
:1009300000147F147F14242A7F2A12231308646270
:1009400036495522500005030000001C22410000DA
:1009500041221C0014083E081408083E08080050F4
:100960003000000808080808006060000020100837
:1009700004023E5149453E00427F400042615149D8
:10098000462141454B311814127F10274545453902
:100990003C4A49493001710905033649494936063F
:1009A0004949291E0036360000005636000008145A
:1009B000224100141414141400412214080201519D
:1009C0000906324979413E7E1111117E7F4949491C
:1009D000363E414141227F4141221C7F49494941E4
:1009E0007F090909013E4149497A7F0808087F00CB
:1009F000417F41002040413F017F081422417F4058
:100A00004040407F020C027F7F0408107F3E41413E
:100A1000413E7F090909063E4151215E7F0919299E
:100A200046464949493101017F01013F4040403F6D
:100A30001F2040201F3F4038403F631408146307C5
:100A4000087008076151494543007F414100020495
:100A50000810200041417F00040201020440404090
:100A60004040000102040020545454787F4844441C
:100A7000383844444420384444487F385454541847
:100A8000087E0901020C5252523E7F08040478008D
:100A9000447D40002040443D007F10284400004138
:100AA0007F40007C041804787C08040478384444AF
:100AB00044387C14141408081414187C7C080404AA
:100AC000084854545420043F4440203C4040207C7B
:100AD0001C2040201C3C4030403C44281028440C42
:100AE0005050503C4464544C4400083641000000CF
:100AF0007F000000413608001008081008784641C1
:100B000046780000140B000800000020600600007A
:040B100028010008B0
:040000050800016D81
:00000001FF
